{
  "_format": "hh-sol-artifact-1",
  "contractName": "MedicalRecords",
  "sourceName": "contracts/MedicalRecords.sol",
  "abi": [
    {
      "anonymous": false,
      "inputs": [
        {
          "indexed": false,
          "internalType": "uint256",
          "name": "recordId",
          "type": "uint256"
        },
        {
          "indexed": false,
          "internalType": "uint256",
          "name": "timestamp",
          "type": "uint256"
        },
        {
          "indexed": false,
          "internalType": "string",
          "name": "name",
          "type": "string"
        },
        {
          "indexed": false,
          "internalType": "uint256",
          "name": "age",
          "type": "uint256"
        },
        {
          "indexed": false,
          "internalType": "string",
          "name": "gender",
          "type": "string"
        },
        {
          "indexed": false,
          "internalType": "string",
          "name": "bloodType",
          "type": "string"
        },
        {
          "indexed": false,
          "internalType": "string",
          "name": "allergies",
          "type": "string"
        },
        {
          "indexed": false,
          "internalType": "string",
          "name": "diagnosis",
          "type": "string"
        },
        {
          "indexed": false,
          "internalType": "string",
          "name": "treatment",
          "type": "string"
        }
      ],
      "name": "MedicalRecords__AddRecord",
      "type": "event"
    },
    {
      "anonymous": false,
      "inputs": [
        {
          "indexed": false,
          "internalType": "uint256",
          "name": "recordId",
          "type": "uint256"
        },
        {
          "indexed": false,
          "internalType": "uint256",
          "name": "timestamp",
          "type": "uint256"
        },
        {
          "indexed": false,
          "internalType": "string",
          "name": "name",
          "type": "string"
        },
        {
          "indexed": false,
          "internalType": "uint256",
          "name": "age",
          "type": "uint256"
        },
        {
          "indexed": false,
          "internalType": "string",
          "name": "gender",
          "type": "string"
        },
        {
          "indexed": false,
          "internalType": "string",
          "name": "bloodType",
          "type": "string"
        },
        {
          "indexed": false,
          "internalType": "string",
          "name": "allergies",
          "type": "string"
        },
        {
          "indexed": false,
          "internalType": "string",
          "name": "diagnosis",
          "type": "string"
        },
        {
          "indexed": false,
          "internalType": "string",
          "name": "treatment",
          "type": "string"
        }
      ],
      "name": "MedicalRecords__DeleteRecord",
      "type": "event"
    },
    {
      "inputs": [
        {
          "internalType": "string",
          "name": "_name",
          "type": "string"
        },
        {
          "internalType": "uint256",
          "name": "_age",
          "type": "uint256"
        },
        {
          "internalType": "string",
          "name": "_gender",
          "type": "string"
        },
        {
          "internalType": "string",
          "name": "_bloodType",
          "type": "string"
        },
        {
          "internalType": "string",
          "name": "_allergies",
          "type": "string"
        },
        {
          "internalType": "string",
          "name": "_diagnosis",
          "type": "string"
        },
        {
          "internalType": "string",
          "name": "_treatment",
          "type": "string"
        }
      ],
      "name": "addRecord",
      "outputs": [],
      "stateMutability": "nonpayable",
      "type": "function"
    },
    {
      "inputs": [
        {
          "internalType": "uint256",
          "name": "_recordId",
          "type": "uint256"
        }
      ],
      "name": "deleteRecord",
      "outputs": [],
      "stateMutability": "nonpayable",
      "type": "function"
    },
    {
      "inputs": [
        {
          "internalType": "uint256",
          "name": "_recordId",
          "type": "uint256"
        }
      ],
      "name": "getAge",
      "outputs": [
        {
          "internalType": "uint256",
          "name": "",
          "type": "uint256"
        }
      ],
      "stateMutability": "view",
      "type": "function"
    },
    {
      "inputs": [
        {
          "internalType": "uint256",
          "name": "_recordId",
          "type": "uint256"
        }
      ],
      "name": "getAllergies",
      "outputs": [
        {
          "internalType": "string",
          "name": "",
          "type": "string"
        }
      ],
      "stateMutability": "view",
      "type": "function"
    },
    {
      "inputs": [
        {
          "internalType": "uint256",
          "name": "_recordId",
          "type": "uint256"
        }
      ],
      "name": "getBloodType",
      "outputs": [
        {
          "internalType": "string",
          "name": "",
          "type": "string"
        }
      ],
      "stateMutability": "view",
      "type": "function"
    },
    {
      "inputs": [
        {
          "internalType": "uint256",
          "name": "_recordId",
          "type": "uint256"
        }
      ],
      "name": "getDeleted",
      "outputs": [
        {
          "internalType": "bool",
          "name": "",
          "type": "bool"
        }
      ],
      "stateMutability": "view",
      "type": "function"
    },
    {
      "inputs": [
        {
          "internalType": "uint256",
          "name": "_recordId",
          "type": "uint256"
        }
      ],
      "name": "getDiagnosis",
      "outputs": [
        {
          "internalType": "string",
          "name": "",
          "type": "string"
        }
      ],
      "stateMutability": "view",
      "type": "function"
    },
    {
      "inputs": [
        {
          "internalType": "uint256",
          "name": "_recordId",
          "type": "uint256"
        }
      ],
      "name": "getGender",
      "outputs": [
        {
          "internalType": "string",
          "name": "",
          "type": "string"
        }
      ],
      "stateMutability": "view",
      "type": "function"
    },
    {
      "inputs": [
        {
          "internalType": "uint256",
          "name": "_recordId",
          "type": "uint256"
        }
      ],
      "name": "getName",
      "outputs": [
        {
          "internalType": "string",
          "name": "",
          "type": "string"
        }
      ],
      "stateMutability": "view",
      "type": "function"
    },
    {
      "inputs": [
        {
          "internalType": "uint256",
          "name": "_recordId",
          "type": "uint256"
        }
      ],
      "name": "getRecord",
      "outputs": [
        {
          "internalType": "uint256",
          "name": "",
          "type": "uint256"
        },
        {
          "internalType": "string",
          "name": "",
          "type": "string"
        },
        {
          "internalType": "uint256",
          "name": "",
          "type": "uint256"
        },
        {
          "internalType": "string",
          "name": "",
          "type": "string"
        },
        {
          "internalType": "string",
          "name": "",
          "type": "string"
        },
        {
          "internalType": "string",
          "name": "",
          "type": "string"
        },
        {
          "internalType": "string",
          "name": "",
          "type": "string"
        },
        {
          "internalType": "string",
          "name": "",
          "type": "string"
        }
      ],
      "stateMutability": "view",
      "type": "function"
    },
    {
      "inputs": [],
      "name": "getRecordId",
      "outputs": [
        {
          "internalType": "uint256",
          "name": "",
          "type": "uint256"
        }
      ],
      "stateMutability": "view",
      "type": "function"
    },
    {
      "inputs": [
        {
          "internalType": "uint256",
          "name": "_recordId",
          "type": "uint256"
        }
      ],
      "name": "getTimeStamp",
      "outputs": [
        {
          "internalType": "uint256",
          "name": "",
          "type": "uint256"
        }
      ],
      "stateMutability": "view",
      "type": "function"
    },
    {
      "inputs": [
        {
          "internalType": "uint256",
          "name": "_recordId",
          "type": "uint256"
        }
      ],
      "name": "getTreatment",
      "outputs": [
        {
          "internalType": "string",
          "name": "",
          "type": "string"
        }
      ],
      "stateMutability": "view",
      "type": "function"
    },
    {
      "inputs": [
        {
          "internalType": "uint256",
          "name": "",
          "type": "uint256"
        }
      ],
      "name": "isDeleted",
      "outputs": [
        {
          "internalType": "bool",
          "name": "",
          "type": "bool"
        }
      ],
      "stateMutability": "view",
      "type": "function"
    },
    {
      "inputs": [],
      "name": "recordId",
      "outputs": [
        {
          "internalType": "uint256",
          "name": "",
          "type": "uint256"
        }
      ],
      "stateMutability": "view",
      "type": "function"
    }
  ],
  "bytecode": "0x608060405234801561001057600080fd5b506118c0806100206000396000f3fe608060405234801561001057600080fd5b50600436106100f55760003560e01c806394182c3611610097578063b810793e11610066578063b810793e146102d7578063e06d2eb514610307578063f26c5f5f14610337578063f7dfe22b14610367576100f5565b806394182c361461022957806397f6c84c1461025957806399055dda14610289578063ab596946146102a7576100f5565b806333c3f9a4116100d357806333c3f9a41461017d5780636747f391146101995780636b8ff574146101c957806373c440db146101f9576100f5565b806303e9e609146100fa578063061f9811146101315780630e37008a1461014d575b600080fd5b610114600480360381019061010f9190610e71565b610385565b604051610128989796959493929190610f3d565b60405180910390f35b61014b60048036038101906101469190610e71565b610730565b005b61016760048036038101906101629190610e71565b610839565b6040516101749190610fe5565b60405180910390f35b61019760048036038101906101929190611135565b610859565b005b6101b360048036038101906101ae9190610e71565b6109be565b6040516101c09190610fe5565b60405180910390f35b6101e360048036038101906101de9190610e71565b6109de565b6040516101f0919061127f565b60405180910390f35b610213600480360381019061020e9190610e71565b610a86565b604051610220919061127f565b60405180910390f35b610243600480360381019061023e9190610e71565b610b2e565b60405161025091906112bc565b60405180910390f35b610273600480360381019061026e9190610e71565b610b4e565b604051610280919061127f565b60405180910390f35b610291610bf6565b60405161029e9190610fe5565b60405180910390f35b6102c160048036038101906102bc9190610e71565b610bff565b6040516102ce91906112bc565b60405180910390f35b6102f160048036038101906102ec9190610e71565b610c29565b6040516102fe919061127f565b60405180910390f35b610321600480360381019061031c9190610e71565b610cd1565b60405161032e919061127f565b60405180910390f35b610351600480360381019061034c9190610e71565b610d79565b60405161035e919061127f565b60405180910390f35b61036f610e21565b60405161037c9190610fe5565b60405180910390f35b60006060600060608060608060606000600160008b81526020019081526020016000209050806001015481600201826003015483600401846005018560060186600701876008018680546103d890611306565b80601f016020809104026020016040519081016040528092919081815260200182805461040490611306565b80156104515780601f1061042657610100808354040283529160200191610451565b820191906000526020600020905b81548152906001019060200180831161043457829003601f168201915b5050505050965084805461046490611306565b80601f016020809104026020016040519081016040528092919081815260200182805461049090611306565b80156104dd5780601f106104b2576101008083540402835291602001916104dd565b820191906000526020600020905b8154815290600101906020018083116104c057829003601f168201915b505050505094508380546104f090611306565b80601f016020809104026020016040519081016040528092919081815260200182805461051c90611306565b80156105695780601f1061053e57610100808354040283529160200191610569565b820191906000526020600020905b81548152906001019060200180831161054c57829003601f168201915b5050505050935082805461057c90611306565b80601f01602080910402602001604051908101604052809291908181526020018280546105a890611306565b80156105f55780601f106105ca576101008083540402835291602001916105f5565b820191906000526020600020905b8154815290600101906020018083116105d857829003601f168201915b5050505050925081805461060890611306565b80601f016020809104026020016040519081016040528092919081815260200182805461063490611306565b80156106815780601f1061065657610100808354040283529160200191610681565b820191906000526020600020905b81548152906001019060200180831161066457829003601f168201915b5050505050915080805461069490611306565b80601f01602080910402602001604051908101604052809291908181526020018280546106c090611306565b801561070d5780601f106106e25761010080835404028352916020019161070d565b820191906000526020600020905b8154815290600101906020018083116106f057829003601f168201915b505050505090509850985098509850985098509850985050919395975091939597565b6002600082815260200190815260200160002060009054906101000a900460ff1615610791576040517f08c379a000000000000000000000000000000000000000000000000000000000815260040161078890611383565b60405180910390fd5b60006001600083815260200190815260200160002090507f9f6d6d42feaf505d16bad36aa62866b87460b7e950ea40c554ef8bbfa8f0e5c681600001544283600201846003015485600401866005018760060188600701896008016040516108019998979695949392919061143c565b60405180910390a160016002600084815260200190815260200160002060006101000a81548160ff0219169083151502179055505050565b600060016000838152602001908152602001600020600301549050919050565b60008081548092919061086b90611522565b91905055506040518061012001604052806000548152602001428152602001888152602001878152602001868152602001858152602001848152602001838152602001828152506001600080548152602001908152602001600020600082015181600001556020820151816001015560408201518160020190816108ef9190611701565b5060608201518160030155608082015181600401908161090f9190611701565b5060a08201518160050190816109259190611701565b5060c082015181600601908161093b9190611701565b5060e08201518160070190816109519190611701565b506101008201518160080190816109689190611701565b509050507f3cd872dcecf0391593d478bf560910c59955e9a59702631641bd52b78cafd5db60005442898989898989896040516109ad999897969594939291906117d3565b60405180910390a150505050505050565b600060016000838152602001908152602001600020600101549050919050565b6060600160008381526020019081526020016000206002018054610a0190611306565b80601f0160208091040260200160405190810160405280929190818152602001828054610a2d90611306565b8015610a7a5780601f10610a4f57610100808354040283529160200191610a7a565b820191906000526020600020905b815481529060010190602001808311610a5d57829003601f168201915b50505050509050919050565b6060600160008381526020019081526020016000206007018054610aa990611306565b80601f0160208091040260200160405190810160405280929190818152602001828054610ad590611306565b8015610b225780601f10610af757610100808354040283529160200191610b22565b820191906000526020600020905b815481529060010190602001808311610b0557829003601f168201915b50505050509050919050565b60026020528060005260406000206000915054906101000a900460ff1681565b6060600160008381526020019081526020016000206006018054610b7190611306565b80601f0160208091040260200160405190810160405280929190818152602001828054610b9d90611306565b8015610bea5780601f10610bbf57610100808354040283529160200191610bea565b820191906000526020600020905b815481529060010190602001808311610bcd57829003601f168201915b50505050509050919050565b60008054905090565b60006002600083815260200190815260200160002060009054906101000a900460ff169050919050565b6060600160008381526020019081526020016000206005018054610c4c90611306565b80601f0160208091040260200160405190810160405280929190818152602001828054610c7890611306565b8015610cc55780601f10610c9a57610100808354040283529160200191610cc5565b820191906000526020600020905b815481529060010190602001808311610ca857829003601f168201915b50505050509050919050565b6060600160008381526020019081526020016000206004018054610cf490611306565b80601f0160208091040260200160405190810160405280929190818152602001828054610d2090611306565b8015610d6d5780601f10610d4257610100808354040283529160200191610d6d565b820191906000526020600020905b815481529060010190602001808311610d5057829003601f168201915b50505050509050919050565b6060600160008381526020019081526020016000206008018054610d9c90611306565b80601f0160208091040260200160405190810160405280929190818152602001828054610dc890611306565b8015610e155780601f10610dea57610100808354040283529160200191610e15565b820191906000526020600020905b815481529060010190602001808311610df857829003601f168201915b50505050509050919050565b60005481565b6000604051905090565b600080fd5b600080fd5b6000819050919050565b610e4e81610e3b565b8114610e5957600080fd5b50565b600081359050610e6b81610e45565b92915050565b600060208284031215610e8757610e86610e31565b5b6000610e9584828501610e5c565b91505092915050565b610ea781610e3b565b82525050565b600081519050919050565b600082825260208201905092915050565b60005b83811015610ee7578082015181840152602081019050610ecc565b60008484015250505050565b6000601f19601f8301169050919050565b6000610f0f82610ead565b610f198185610eb8565b9350610f29818560208601610ec9565b610f3281610ef3565b840191505092915050565b600061010082019050610f53600083018b610e9e565b8181036020830152610f65818a610f04565b9050610f746040830189610e9e565b8181036060830152610f868188610f04565b90508181036080830152610f9a8187610f04565b905081810360a0830152610fae8186610f04565b905081810360c0830152610fc28185610f04565b905081810360e0830152610fd68184610f04565b90509998505050505050505050565b6000602082019050610ffa6000830184610e9e565b92915050565b600080fd5b600080fd5b7f4e487b7100000000000000000000000000000000000000000000000000000000600052604160045260246000fd5b61104282610ef3565b810181811067ffffffffffffffff821117156110615761106061100a565b5b80604052505050565b6000611074610e27565b90506110808282611039565b919050565b600067ffffffffffffffff8211156110a05761109f61100a565b5b6110a982610ef3565b9050602081019050919050565b82818337600083830152505050565b60006110d86110d384611085565b61106a565b9050828152602081018484840111156110f4576110f3611005565b5b6110ff8482856110b6565b509392505050565b600082601f83011261111c5761111b611000565b5b813561112c8482602086016110c5565b91505092915050565b600080600080600080600060e0888a03121561115457611153610e31565b5b600088013567ffffffffffffffff81111561117257611171610e36565b5b61117e8a828b01611107565b975050602061118f8a828b01610e5c565b965050604088013567ffffffffffffffff8111156111b0576111af610e36565b5b6111bc8a828b01611107565b955050606088013567ffffffffffffffff8111156111dd576111dc610e36565b5b6111e98a828b01611107565b945050608088013567ffffffffffffffff81111561120a57611209610e36565b5b6112168a828b01611107565b93505060a088013567ffffffffffffffff81111561123757611236610e36565b5b6112438a828b01611107565b92505060c088013567ffffffffffffffff81111561126457611263610e36565b5b6112708a828b01611107565b91505092959891949750929550565b600060208201905081810360008301526112998184610f04565b905092915050565b60008115159050919050565b6112b6816112a1565b82525050565b60006020820190506112d160008301846112ad565b92915050565b7f4e487b7100000000000000000000000000000000000000000000000000000000600052602260045260246000fd5b6000600282049050600182168061131e57607f821691505b602082108103611331576113306112d7565b5b50919050565b7f546865207265636f726420697320616c72656164792064656c65746564000000600082015250565b600061136d601d83610eb8565b915061137882611337565b602082019050919050565b6000602082019050818103600083015261139c81611360565b9050919050565b60008190508160005260206000209050919050565b600081546113c581611306565b6113cf8186610eb8565b945060018216600081146113ea576001811461140057611433565b60ff198316865281151560200286019350611433565b611409856113a3565b60005b8381101561142b5781548189015260018201915060208101905061140c565b808801955050505b50505092915050565b600061012082019050611452600083018c610e9e565b61145f602083018b610e9e565b8181036040830152611471818a6113b8565b90506114806060830189610e9e565b818103608083015261149281886113b8565b905081810360a08301526114a681876113b8565b905081810360c08301526114ba81866113b8565b905081810360e08301526114ce81856113b8565b90508181036101008301526114e381846113b8565b90509a9950505050505050505050565b7f4e487b7100000000000000000000000000000000000000000000000000000000600052601160045260246000fd5b600061152d82610e3b565b91507fffffffffffffffffffffffffffffffffffffffffffffffffffffffffffffffff820361155f5761155e6114f3565b5b600182019050919050565b60006020601f8301049050919050565b600082821b905092915050565b6000600883026115b77fffffffffffffffffffffffffffffffffffffffffffffffffffffffffffffffff8261157a565b6115c1868361157a565b95508019841693508086168417925050509392505050565b6000819050919050565b60006115fe6115f96115f484610e3b565b6115d9565b610e3b565b9050919050565b6000819050919050565b611618836115e3565b61162c61162482611605565b848454611587565b825550505050565b600090565b611641611634565b61164c81848461160f565b505050565b5b8181101561167057611665600082611639565b600181019050611652565b5050565b601f8211156116b557611686816113a3565b61168f8461156a565b8101602085101561169e578190505b6116b26116aa8561156a565b830182611651565b50505b505050565b600082821c905092915050565b60006116d8600019846008026116ba565b1980831691505092915050565b60006116f183836116c7565b9150826002028217905092915050565b61170a82610ead565b67ffffffffffffffff8111156117235761172261100a565b5b61172d8254611306565b611738828285611674565b600060209050601f83116001811461176b5760008415611759578287015190505b61176385826116e5565b8655506117cb565b601f198416611779866113a3565b60005b828110156117a15784890151825560018201915060208501945060208101905061177c565b868310156117be57848901516117ba601f8916826116c7565b8355505b6001600288020188555050505b505050505050565b6000610120820190506117e9600083018c610e9e565b6117f6602083018b610e9e565b8181036040830152611808818a610f04565b90506118176060830189610e9e565b81810360808301526118298188610f04565b905081810360a083015261183d8187610f04565b905081810360c08301526118518186610f04565b905081810360e08301526118658185610f04565b905081810361010083015261187a8184610f04565b90509a995050505050505050505056fea2646970667358221220cd8b6b39067a555c605d4620079f60c735fe0f2aef41de20cdfa2bbb0bdb8f3264736f6c63430008120033",
  "linkReferences": {},
  "deployedLinkReferences": {}
}